{
  "_format": "hh-sol-artifact-1",
  "contractName": "BeerPortal",
  "sourceName": "contracts/BeerPortal.sol",
  "abi": [
    {
      "inputs": [],
      "stateMutability": "payable",
      "type": "constructor"
    },
    {
      "anonymous": false,
      "inputs": [
        {
          "indexed": true,
          "internalType": "address",
          "name": "from",
          "type": "address"
        },
        {
          "indexed": false,
          "internalType": "uint256",
          "name": "timestamp",
          "type": "uint256"
        },
        {
          "indexed": false,
          "internalType": "string",
          "name": "message",
          "type": "string"
        },
        {
          "indexed": false,
          "internalType": "string",
          "name": "favBeer",
          "type": "string"
        }
      ],
      "name": "newBeer",
      "type": "event"
    },
    {
      "inputs": [
        {
          "internalType": "string",
          "name": "_message",
          "type": "string"
        },
        {
          "internalType": "string",
          "name": "_favBeer",
          "type": "string"
        }
      ],
      "name": "beer",
      "outputs": [],
      "stateMutability": "nonpayable",
      "type": "function"
    },
    {
      "inputs": [],
      "name": "getAllBeers",
      "outputs": [
        {
          "components": [
            {
              "internalType": "address",
              "name": "sender",
              "type": "address"
            },
            {
              "internalType": "string",
              "name": "message",
              "type": "string"
            },
            {
              "internalType": "string",
              "name": "favBeer",
              "type": "string"
            },
            {
              "internalType": "uint256",
              "name": "timestamp",
              "type": "uint256"
            }
          ],
          "internalType": "struct BeerPortal.Beer[]",
          "name": "",
          "type": "tuple[]"
        }
      ],
      "stateMutability": "view",
      "type": "function"
    },
    {
      "inputs": [],
      "name": "getTotalBeers",
      "outputs": [
        {
          "internalType": "uint256",
          "name": "",
          "type": "uint256"
        }
      ],
      "stateMutability": "view",
      "type": "function"
    },
    {
      "inputs": [
        {
          "internalType": "address",
          "name": "",
          "type": "address"
        }
      ],
      "name": "lastBeerAt",
      "outputs": [
        {
          "internalType": "uint256",
          "name": "",
          "type": "uint256"
        }
      ],
      "stateMutability": "view",
      "type": "function"
    }
  ],
  "bytecode": "0x60806040526200004f6040518060400160405280601b81526020017f4c6f6f6b206174207468697320736d61727420636f6e747261637400000000008152506200005560201b620007421760201c565b620001e9565b620000f5816040516024016200006c919062000162565b6040516020818303038152906040527f41304fac000000000000000000000000000000000000000000000000000000007bffffffffffffffffffffffffffffffffffffffffffffffffffffffff19166020820180517bffffffffffffffffffffffffffffffffffffffffffffffffffffffff8381831617835250505050620000f860201b60201c565b50565b60008151905060006a636f6e736f6c652e6c6f679050602083016000808483855afa5050505050565b60006200012e8262000186565b6200013a818562000191565b93506200014c818560208601620001a2565b6200015781620001d8565b840191505092915050565b600060208201905081810360008301526200017e818462000121565b905092915050565b600081519050919050565b600082825260208201905092915050565b60005b83811015620001c2578082015181840152602081019050620001a5565b83811115620001d2576000848401525b50505050565b6000601f19601f8301169050919050565b6112d080620001f96000396000f3fe608060405234801561001057600080fd5b506004361061004c5760003560e01c806367b0d31214610051578063a0285d791461006f578063b8d0eaaf1461008b578063efff97d4146100bb575b600080fd5b6100596100d9565b6040516100669190610d33565b60405180910390f35b61008960048036038101906100849190610a85565b6102bc565b005b6100a560048036038101906100a09190610a5c565b6106df565b6040516100b29190610e37565b60405180910390f35b6100c36106f7565b6040516100d09190610e37565b60405180910390f35b60606002805480602002602001604051908101604052809291908181526020016000905b828210156102b357838290600052602060002090600402016040518060800160405290816000820160009054906101000a900473ffffffffffffffffffffffffffffffffffffffff1673ffffffffffffffffffffffffffffffffffffffff1673ffffffffffffffffffffffffffffffffffffffff16815260200160018201805461018690611032565b80601f01602080910402602001604051908101604052809291908181526020018280546101b290611032565b80156101ff5780601f106101d4576101008083540402835291602001916101ff565b820191906000526020600020905b8154815290600101906020018083116101e257829003601f168201915b5050505050815260200160028201805461021890611032565b80601f016020809104026020016040519081016040528092919081815260200182805461024490611032565b80156102915780601f1061026657610100808354040283529160200191610291565b820191906000526020600020905b81548152906001019060200180831161027457829003601f168201915b50505050508152602001600382015481525050815260200190600101906100fd565b50505050905090565b42610384600360003373ffffffffffffffffffffffffffffffffffffffff1673ffffffffffffffffffffffffffffffffffffffff1681526020019081526020016000205461030a9190610f5e565b1061034a576040517f08c379a000000000000000000000000000000000000000000000000000000000815260040161034190610e17565b60405180910390fd5b42600360003373ffffffffffffffffffffffffffffffffffffffff1673ffffffffffffffffffffffffffffffffffffffff1681526020019081526020016000208190555060016000808282546103a09190610f5e565b925050819055506103e66040518060400160405280601381526020017f2573206861732073656e74206120426565722100000000000000000000000000815250336107db565b600260405180608001604052803373ffffffffffffffffffffffffffffffffffffffff16815260200184815260200183815260200142815250908060018154018082558091505060019003906000526020600020906004020160009091909190915060008201518160000160006101000a81548173ffffffffffffffffffffffffffffffffffffffff021916908373ffffffffffffffffffffffffffffffffffffffff16021790555060208201518160010190805190602001906104ab92919061093c565b5060408201518160020190805190602001906104c892919061093c565b506060820151816003015550506000606460015442446104e89190610f5e565b6104f29190610f5e565b6104fc9190611095565b905061053d6040518060400160405280601581526020017f52616e646f6d20232067656e657261746564202573000000000000000000000081525082610877565b80600181905550603281116106885761058b6040518060400160405280600781526020017f257320776f6e2100000000000000000000000000000000000000000000000000815250336107db565b6000655af3107a40009050478111156105d9576040517f08c379a00000000000000000000000000000000000000000000000000000000081526004016105d090610dd7565b60405180910390fd5b60003373ffffffffffffffffffffffffffffffffffffffff16826040516105ff90610d1e565b60006040518083038185875af1925050503d806000811461063c576040519150601f19603f3d011682016040523d82523d6000602084013e610641565b606091505b5050905080610685576040517f08c379a000000000000000000000000000000000000000000000000000000000815260040161067c90610df7565b60405180910390fd5b50505b3373ffffffffffffffffffffffffffffffffffffffff167f9a7ecf4b53405fb449bec3aeaf97d192cd5c6a562b378066699e158a53ee503b4285856040516106d293929190610e52565b60405180910390a2505050565b60036020528060005260406000206000915090505481565b600061073a6040518060400160405280601b81526020017f5765206861766520256420746f616c206f662062656572732121210000000000815250600054610877565b600054905090565b6107d8816040516024016107569190610d55565b6040516020818303038152906040527f41304fac000000000000000000000000000000000000000000000000000000007bffffffffffffffffffffffffffffffffffffffffffffffffffffffff19166020820180517bffffffffffffffffffffffffffffffffffffffffffffffffffffffff8381831617835250505050610913565b50565b61087382826040516024016107f1929190610d77565b6040516020818303038152906040527f319af333000000000000000000000000000000000000000000000000000000007bffffffffffffffffffffffffffffffffffffffffffffffffffffffff19166020820180517bffffffffffffffffffffffffffffffffffffffffffffffffffffffff8381831617835250505050610913565b5050565b61090f828260405160240161088d929190610da7565b6040516020818303038152906040527f9710a9d0000000000000000000000000000000000000000000000000000000007bffffffffffffffffffffffffffffffffffffffffffffffffffffffff19166020820180517bffffffffffffffffffffffffffffffffffffffffffffffffffffffff8381831617835250505050610913565b5050565b60008151905060006a636f6e736f6c652e6c6f679050602083016000808483855afa5050505050565b82805461094890611032565b90600052602060002090601f01602090048101928261096a57600085556109b1565b82601f1061098357805160ff19168380011785556109b1565b828001600101855582156109b1579182015b828111156109b0578251825591602001919060010190610995565b5b5090506109be91906109c2565b5090565b5b808211156109db5760008160009055506001016109c3565b5090565b60006109f26109ed84610ebc565b610e97565b905082815260208101848484011115610a0a57600080fd5b610a15848285610ff0565b509392505050565b600081359050610a2c81611283565b92915050565b600082601f830112610a4357600080fd5b8135610a538482602086016109df565b91505092915050565b600060208284031215610a6e57600080fd5b6000610a7c84828501610a1d565b91505092915050565b60008060408385031215610a9857600080fd5b600083013567ffffffffffffffff811115610ab257600080fd5b610abe85828601610a32565b925050602083013567ffffffffffffffff811115610adb57600080fd5b610ae785828601610a32565b9150509250929050565b6000610afd8383610c96565b905092915050565b610b0e81610fb4565b82525050565b610b1d81610fb4565b82525050565b6000610b2e82610efd565b610b388185610f20565b935083602082028501610b4a85610eed565b8060005b85811015610b865784840389528151610b678582610af1565b9450610b7283610f13565b925060208a01995050600181019050610b4e565b50829750879550505050505092915050565b6000610ba382610f08565b610bad8185610f3c565b9350610bbd818560208601610fff565b610bc681611182565b840191505092915050565b6000610bdc82610f08565b610be68185610f4d565b9350610bf6818560208601610fff565b610bff81611182565b840191505092915050565b6000610c17603483610f4d565b9150610c2282611193565b604082019050919050565b6000610c3a602783610f4d565b9150610c45826111e2565b604082019050919050565b6000610c5d600183610f31565b9150610c6882611231565b600182019050919050565b6000610c80600883610f4d565b9150610c8b8261125a565b602082019050919050565b6000608083016000830151610cae6000860182610b05565b5060208301518482036020860152610cc68282610b98565b91505060408301518482036040860152610ce08282610b98565b9150506060830151610cf56060860182610d00565b508091505092915050565b610d0981610fe6565b82525050565b610d1881610fe6565b82525050565b6000610d2982610c50565b9150819050919050565b60006020820190508181036000830152610d4d8184610b23565b905092915050565b60006020820190508181036000830152610d6f8184610bd1565b905092915050565b60006040820190508181036000830152610d918185610bd1565b9050610da06020830184610b14565b9392505050565b60006040820190508181036000830152610dc18185610bd1565b9050610dd06020830184610d0f565b9392505050565b60006020820190508181036000830152610df081610c0a565b9050919050565b60006020820190508181036000830152610e1081610c2d565b9050919050565b60006020820190508181036000830152610e3081610c73565b9050919050565b6000602082019050610e4c6000830184610d0f565b92915050565b6000606082019050610e676000830186610d0f565b8181036020830152610e798185610bd1565b90508181036040830152610e8d8184610bd1565b9050949350505050565b6000610ea1610eb2565b9050610ead8282611064565b919050565b6000604051905090565b600067ffffffffffffffff821115610ed757610ed6611153565b5b610ee082611182565b9050602081019050919050565b6000819050602082019050919050565b600081519050919050565b600081519050919050565b6000602082019050919050565b600082825260208201905092915050565b600081905092915050565b600082825260208201905092915050565b600082825260208201905092915050565b6000610f6982610fe6565b9150610f7483610fe6565b9250827fffffffffffffffffffffffffffffffffffffffffffffffffffffffffffffffff03821115610fa957610fa86110c6565b5b828201905092915050565b6000610fbf82610fc6565b9050919050565b600073ffffffffffffffffffffffffffffffffffffffff82169050919050565b6000819050919050565b82818337600083830152505050565b60005b8381101561101d578082015181840152602081019050611002565b8381111561102c576000848401525b50505050565b6000600282049050600182168061104a57607f821691505b6020821081141561105e5761105d611124565b5b50919050565b61106d82611182565b810181811067ffffffffffffffff8211171561108c5761108b611153565b5b80604052505050565b60006110a082610fe6565b91506110ab83610fe6565b9250826110bb576110ba6110f5565b5b828206905092915050565b7f4e487b7100000000000000000000000000000000000000000000000000000000600052601160045260246000fd5b7f4e487b7100000000000000000000000000000000000000000000000000000000600052601260045260246000fd5b7f4e487b7100000000000000000000000000000000000000000000000000000000600052602260045260246000fd5b7f4e487b7100000000000000000000000000000000000000000000000000000000600052604160045260246000fd5b6000601f19601f8301169050919050565b7f547279696e6720746f207769746864726177206d6f7265206d6f6e657920746860008201527f616e2074686520636f6e7472616374206861732e000000000000000000000000602082015250565b7f4661696c656420746f207769746864726177206d6f6e65792066726f6d20636f60008201527f6e74726163742e00000000000000000000000000000000000000000000000000602082015250565b7f2000000000000000000000000000000000000000000000000000000000000000600082015250565b7f576169742031356d000000000000000000000000000000000000000000000000600082015250565b61128c81610fb4565b811461129757600080fd5b5056fea264697066735822122040d50fac84714d688e28ce25939e9b11fe22b0c1a13526c38edf8ce21aa2d87b64736f6c63430008040033",
  "linkReferences": {},
  "deployedLinkReferences": {}
}