{
  "_format": "hh-sol-artifact-1",
  "contractName": "BeerPortal",
  "sourceName": "contracts/BeerPortal.sol",
  "abi": [
    {
      "inputs": [],
      "stateMutability": "nonpayable",
      "type": "constructor"
    },
    {
      "anonymous": false,
      "inputs": [
        {
          "indexed": true,
          "internalType": "address",
          "name": "from",
          "type": "address"
        },
        {
          "indexed": false,
          "internalType": "uint256",
          "name": "timestamp",
          "type": "uint256"
        },
        {
          "indexed": false,
          "internalType": "string",
          "name": "message",
          "type": "string"
        },
        {
          "indexed": false,
          "internalType": "string",
          "name": "favBeer",
          "type": "string"
        }
      ],
      "name": "newBeer",
      "type": "event"
    },
    {
      "inputs": [
        {
          "internalType": "string",
          "name": "_message",
          "type": "string"
        },
        {
          "internalType": "string",
          "name": "_favBeer",
          "type": "string"
        }
      ],
      "name": "beer",
      "outputs": [],
      "stateMutability": "nonpayable",
      "type": "function"
    },
    {
      "inputs": [],
      "name": "getAllBeers",
      "outputs": [
        {
          "components": [
            {
              "internalType": "address",
              "name": "sender",
              "type": "address"
            },
            {
              "internalType": "string",
              "name": "message",
              "type": "string"
            },
            {
              "internalType": "string",
              "name": "favBeer",
              "type": "string"
            },
            {
              "internalType": "uint256",
              "name": "timestamp",
              "type": "uint256"
            }
          ],
          "internalType": "struct BeerPortal.Beer[]",
          "name": "",
          "type": "tuple[]"
        }
      ],
      "stateMutability": "view",
      "type": "function"
    },
    {
      "inputs": [],
      "name": "getTotalBeers",
      "outputs": [
        {
          "internalType": "uint256",
          "name": "",
          "type": "uint256"
        }
      ],
      "stateMutability": "view",
      "type": "function"
    }
  ],
  "bytecode": "0x60806040523480156200001157600080fd5b506200005d6040518060400160405280601b81526020017f4c6f6f6b206174207468697320736d61727420636f6e747261637400000000008152506200006360201b620004691760201c565b620001f7565b62000103816040516024016200007a919062000170565b6040516020818303038152906040527f41304fac000000000000000000000000000000000000000000000000000000007bffffffffffffffffffffffffffffffffffffffffffffffffffffffff19166020820180517bffffffffffffffffffffffffffffffffffffffffffffffffffffffff83818316178352505050506200010660201b60201c565b50565b60008151905060006a636f6e736f6c652e6c6f679050602083016000808483855afa5050505050565b60006200013c8262000194565b6200014881856200019f565b93506200015a818560208601620001b0565b6200016581620001e6565b840191505092915050565b600060208201905081810360008301526200018c81846200012f565b905092915050565b600081519050919050565b600082825260208201905092915050565b60005b83811015620001d0578082015181840152602081019050620001b3565b83811115620001e0576000848401525b50505050565b6000601f19601f8301169050919050565b610d4680620002076000396000f3fe608060405234801561001057600080fd5b50600436106100415760003560e01c806367b0d31214610046578063a0285d7914610064578063efff97d414610080575b600080fd5b61004e61009e565b60405161005b919061097b565b60405180910390f35b61007e6004803603810190610079919061076e565b610281565b005b61008861041e565b6040516100959190610a1f565b60405180910390f35b60606001805480602002602001604051908101604052809291908181526020016000905b8282101561027857838290600052602060002090600402016040518060800160405290816000820160009054906101000a900473ffffffffffffffffffffffffffffffffffffffff1673ffffffffffffffffffffffffffffffffffffffff1673ffffffffffffffffffffffffffffffffffffffff16815260200160018201805461014b90610c0f565b80601f016020809104026020016040519081016040528092919081815260200182805461017790610c0f565b80156101c45780601f10610199576101008083540402835291602001916101c4565b820191906000526020600020905b8154815290600101906020018083116101a757829003601f168201915b505050505081526020016002820180546101dd90610c0f565b80601f016020809104026020016040519081016040528092919081815260200182805461020990610c0f565b80156102565780601f1061022b57610100808354040283529160200191610256565b820191906000526020600020905b81548152906001019060200180831161023957829003601f168201915b50505050508152602001600382015481525050815260200190600101906100c2565b50505050905090565b60016000808282546102939190610b3b565b925050819055506102d96040518060400160405280601581526020017f2573206861732073656e6465642061204265657221000000000000000000000081525033610502565b600160405180608001604052803373ffffffffffffffffffffffffffffffffffffffff16815260200184815260200183815260200142815250908060018154018082558091505060019003906000526020600020906004020160009091909190915060008201518160000160006101000a81548173ffffffffffffffffffffffffffffffffffffffff021916908373ffffffffffffffffffffffffffffffffffffffff160217905550602082015181600101908051906020019061039e929190610663565b5060408201518160020190805190602001906103bb929190610663565b506060820151816003015550503373ffffffffffffffffffffffffffffffffffffffff167f9a7ecf4b53405fb449bec3aeaf97d192cd5c6a562b378066699e158a53ee503b42848460405161041293929190610a3a565b60405180910390a25050565b60006104616040518060400160405280601b81526020017f5765206861766520256420746f616c206f66206265657273212121000000000081525060005461059e565b600054905090565b6104ff8160405160240161047d919061099d565b6040516020818303038152906040527f41304fac000000000000000000000000000000000000000000000000000000007bffffffffffffffffffffffffffffffffffffffffffffffffffffffff19166020820180517bffffffffffffffffffffffffffffffffffffffffffffffffffffffff838183161783525050505061063a565b50565b61059a82826040516024016105189291906109bf565b6040516020818303038152906040527f319af333000000000000000000000000000000000000000000000000000000007bffffffffffffffffffffffffffffffffffffffffffffffffffffffff19166020820180517bffffffffffffffffffffffffffffffffffffffffffffffffffffffff838183161783525050505061063a565b5050565b61063682826040516024016105b49291906109ef565b6040516020818303038152906040527f9710a9d0000000000000000000000000000000000000000000000000000000007bffffffffffffffffffffffffffffffffffffffffffffffffffffffff19166020820180517bffffffffffffffffffffffffffffffffffffffffffffffffffffffff838183161783525050505061063a565b5050565b60008151905060006a636f6e736f6c652e6c6f679050602083016000808483855afa5050505050565b82805461066f90610c0f565b90600052602060002090601f01602090048101928261069157600085556106d8565b82601f106106aa57805160ff19168380011785556106d8565b828001600101855582156106d8579182015b828111156106d75782518255916020019190600101906106bc565b5b5090506106e591906106e9565b5090565b5b808211156107025760008160009055506001016106ea565b5090565b600061071961071484610aa4565b610a7f565b90508281526020810184848401111561073157600080fd5b61073c848285610bcd565b509392505050565b600082601f83011261075557600080fd5b8135610765848260208601610706565b91505092915050565b6000806040838503121561078157600080fd5b600083013567ffffffffffffffff81111561079b57600080fd5b6107a785828601610744565b925050602083013567ffffffffffffffff8111156107c457600080fd5b6107d085828601610744565b9150509250929050565b60006107e683836108f3565b905092915050565b6107f781610b91565b82525050565b61080681610b91565b82525050565b600061081782610ae5565b6108218185610b08565b93508360208202850161083385610ad5565b8060005b8581101561086f578484038952815161085085826107da565b945061085b83610afb565b925060208a01995050600181019050610837565b50829750879550505050505092915050565b600061088c82610af0565b6108968185610b19565b93506108a6818560208601610bdc565b6108af81610cff565b840191505092915050565b60006108c582610af0565b6108cf8185610b2a565b93506108df818560208601610bdc565b6108e881610cff565b840191505092915050565b600060808301600083015161090b60008601826107ee565b50602083015184820360208601526109238282610881565b9150506040830151848203604086015261093d8282610881565b9150506060830151610952606086018261095d565b508091505092915050565b61096681610bc3565b82525050565b61097581610bc3565b82525050565b60006020820190508181036000830152610995818461080c565b905092915050565b600060208201905081810360008301526109b781846108ba565b905092915050565b600060408201905081810360008301526109d981856108ba565b90506109e860208301846107fd565b9392505050565b60006040820190508181036000830152610a0981856108ba565b9050610a18602083018461096c565b9392505050565b6000602082019050610a34600083018461096c565b92915050565b6000606082019050610a4f600083018661096c565b8181036020830152610a6181856108ba565b90508181036040830152610a7581846108ba565b9050949350505050565b6000610a89610a9a565b9050610a958282610c41565b919050565b6000604051905090565b600067ffffffffffffffff821115610abf57610abe610cd0565b5b610ac882610cff565b9050602081019050919050565b6000819050602082019050919050565b600081519050919050565b600081519050919050565b6000602082019050919050565b600082825260208201905092915050565b600082825260208201905092915050565b600082825260208201905092915050565b6000610b4682610bc3565b9150610b5183610bc3565b9250827fffffffffffffffffffffffffffffffffffffffffffffffffffffffffffffffff03821115610b8657610b85610c72565b5b828201905092915050565b6000610b9c82610ba3565b9050919050565b600073ffffffffffffffffffffffffffffffffffffffff82169050919050565b6000819050919050565b82818337600083830152505050565b60005b83811015610bfa578082015181840152602081019050610bdf565b83811115610c09576000848401525b50505050565b60006002820490506001821680610c2757607f821691505b60208210811415610c3b57610c3a610ca1565b5b50919050565b610c4a82610cff565b810181811067ffffffffffffffff82111715610c6957610c68610cd0565b5b80604052505050565b7f4e487b7100000000000000000000000000000000000000000000000000000000600052601160045260246000fd5b7f4e487b7100000000000000000000000000000000000000000000000000000000600052602260045260246000fd5b7f4e487b7100000000000000000000000000000000000000000000000000000000600052604160045260246000fd5b6000601f19601f830116905091905056fea264697066735822122030f8a3a1ea658e2f0e28316c1bfe932ff1d4f683b793130695eac08e02ee45ef64736f6c63430008040033",
  "linkReferences": {},
  "deployedLinkReferences": {}
}